S00F000062616931313131312E733337C4
S1130000001000203D05000005230000052300002A
S1130010052300000523000005230000052300003C
S1130020052300000523000005230000052300002C
S1130030052300000523000005230000052300001C
S1130040052300000523000005230000052300000C
S113005005230000052300000523000005230000FC
S113006005230000052300000523000005230000EC
S113007005230000052300000523000005230000DC
S113008005230000052300000523000005230000CC
S113009005230000150300000523000005230000CC
S11300A005230000052300000523000005230000AC
S11300B0052300000523000005230000052300009C
S11300C0052300000523000005230000052300008C
S11300D0052300000523000005230000052300007C
S11300E0052300000523000005230000052300006C
S11300F0052300000523000005230000052300005C
S1130100052300000523000005230000052300004B
S1130110052300000523000005230000052300003B
S1130120052300000523000005230000052300002B
S1070130052300009F
S11301340348044B834202D0034B03B1184770476E
S1130144A8120020A812002000000000064B074952
S1130154C91A891048BF0131491003D0044B0BB1AB
S113016401481847704700BFA8120020A8120020B5
S11301740000000010B5064C237843B9FFF7D8FFFC
S1130184044B13B10448AFF300800123237010BD62
S1130194A4110020000000009C2A000008B5054BAF
S11301A41BB105490548AFF30080BDE80840FFF7DB
S11301B4CDBF00BF00000000001000209C2A0000F6
S11301C4A3F5803A704700BF174B002B08BF134BAD
S11301D49D46FFF7F5FF00218B460F461348144A4A
S11301E4121A02F06FF90E4B002B00D098470D4BF6
S11301F4002B00D098470020002104000D000D4876
S1130204002802D00C48AFF3008001F0EDFC20007C
S1130214290000F0CBF801F0A1FC00BF00000800A5
S11302240000000000000000001000200010002066
S113023438120020000000000000000030B589B02E
S11302440C4D01AC0FCD0FC495E8070084E80700FA
S11302544FF4A022084B0948C3F8C4254FF4C02224
S1130264C3F8BC25142201A9C3F8AC2501F0A0FAF3
S113027409B030BD9027000000C003500080055031
S113028437B51025164B0024D869019001A801F054
S11302946FF9144B2A460021184602F013F9124A46
S11302A4124B0260124AC3E901444260114ADC6001
S11302B48260114A21461A60104B2A46184602F0FD
S11302C401F90F490F4A104BC0E900120F4AC3E960
S11302D4014482604FF48022DC601A6003B030BDB4
S11302E4902700004C100020700010303C100020B7
S11302F42E1200203C800550020004002C10002023
S113030470001003248005501C10002026120020C5
S1130314074B1B6D9A0742BF0221064A1165DB078E
S113032404D50123034A1365034A1370704700BFBD
S1130334000004500020045025120020F0B5ADF252
S1130344044D04460D46164600214FF48062684667
S11303541F4602F0B7F82046134A2544A84214D194
S1130364002069460346024651F8044B9C4288BF68
S1130374C2B200F1010088BF2346B0F5807FF3D1F7
S113038432703B600DF2044DF0BD10F8011B0D29D1
S113039403D842FA01F3DB07E0D55DF821300133D9
S11303A44DF82130DAE700BFFEDBFFFF2DE9F0430F
S11303B48DB002F07AF84FF0000801F061FF01F00B
S11303C460FFFFF73BFFFFF75BFF1D4F1D4E1E4C05
S11303D4C7F80080B3691A06FCD5304601F0FEFF65
S11303E43B680D2803F101013960E05403D00A2865
S11303F401D07F29EED9144803AB0DF10B02FFF7AA
S11304049DFF9DF80B302021A3F120025E2A039A5C
S113041404A8009294BF0D4A0D4A01F0B1FB4FF0B9
S11304240009044604AD4C45D1DDB3695B06FCD533
S1130434304615F8011B01F0D7FF09F10109F2E771
S11304441810002000800550A51100207827000012
S11304548227000007B501A801F0CAF89DF8053009
S1130464012B27D11E4A936DDB0313D4536B23F45E
S1130474FF0323F4FE4343F4BC1343F4A063536324
S1130484136B23F4704343F440431363136B43F437
S1130494E06313639DF8043063B94FF000531B68A1
S11304A4104B1B68104B1B68104B1B68104B1B68CC
S11304B4104B1B68104AD2F8803043F00303C2F88F
S11304C4803001F0E7FF00F023F801F0E1FF01F0D0
S11304D490FF01F0D1FA03B05DF804EB00F00EB81C
S11304E400C00050004000200080002000C0002014
S11304F400000120004001200080005008B503489A
S113050401F07EFFBDE8084001F0D0BEE8290000F8
S1130514014801F075BF00BFE82900000348044AFC
S11305240449121A921001F0ECBE00BF3401000019
S1130534340100003812002008B500F02FF8FFF74A
S1130544EDFF124B12498B4212D30020114B124976
S11305548B4218D3FFF738FE186850F822405868C5
S113056440F82240013298688242F5D30C33EAE71A
S11305740022F8E71C6844F8220001325C68A242B5
S1130584F8D30833E4E70022F8E700BFA42A000004
S1130594B02A0000B02A0000B02A000070B5124B43
S11305A4124A134D9A60D3F8882005F5005442F496
S11305B47002C3F888206FF00102226641F2FF72D0
S11305C462660222C3F8D020BFF34F8FBFF36F8F4C
S11305D44FF44036032001F07BFA0320E66001F077
S11305E45DFA2E6170BD00BF00ED00E00000000064
S11305F400800044014B1868704700BF3C1200207F
S1130604014B1860704700BF3C120020084B1B6F5D
S113061403F00703022B04D0032B05D0012B05D0D0
S1130624FEE7044B18687047034BFBE70348704725
S1130634008000503C12002044120020002D31019F
S113064408B5FFF7E3FF054B1B6FC3F30133013315
S1130654B0FBF3F0024B186008BD00BF00800050EB
S1130664381200200048704700B4C404014B1868D1
S1130674704700BF44120020054B1860054B1B6FE4
S113068403F00703032B01D1FFF7DABF704700BF60
S1130694441200200080005000487047002D3101AE
S11306A4174B9868C0F304400C280AD8DFE800F01C
S11306B40B0909090909072119091B1D1F00114800
S11306C47047002070479B6803F04073B3F1807F48
S11306D411D0B3F1007F10D00B4A002B08BF104691
S11306E470470A4870470A4870470A4870470A48DE
S11306F470470A4870470A4870470A48704700BF61
S11307040040015A405DC60000093D00C0EA2101D1
S113071480BA8C010048E801005A62020024F40003
S113072480841E0040420F00014B1868704700BFCC
S11307344012002013B500242948019401F060FEFE
S1130744012304220321204600F0CAFE204601F0BE
S113075444FE0122234B0520C3F8442401A901F0DB
S11307644AFE002839D1204BD3F8F02042F001028C
S1130774C3F8F020D3F8FC2042F08072C3F8FC20C4
S11307841A4AA3F55D431A60019B194A03F5D5235C
S113079403F2FC43B3FBF2F3164A013B1361022355
S11307A4C2F8F0304FF48073C2F804334FF060435E
S11307B4114AC3F8B02F114AC3F8802ED3F8002E7F
S11307C442F48072C3F8002EFF2283F82020D3F869
S11307D4002E22F48072C3F8002E02B010BD00BFB4
S11307E4E829000000D0035000ED00E0FF030040BE
S11307F4F8590D00000004E055CEACC50900010011
S113080430B541F67133124A124DD469D3639368F7
S1130814A84204F4803423F4401306D893600E4AA7
S1130824D2F8183223F002030AE043F480139360ED
S11308340A4B9842F3D9084AD2F8183243F0020317
S1130844C2F8183214B10022014BDA6330BD00BF80
S113085400000350005A620200C0075080F0FA02FC
S113086408B5334B98424FD027D8324B984245D0E1
S113087417D8314B98423ED00AD838B12F4B9842FE
S113088439D041F2A6312E4801F04FFD002034E066
S11308942C4B98422FD02C4B9842F2D12B4B586EB0
S11308A42BE02B4B98422CD003F5371303F5D86374
S11308B49842E6D1254B986F1FE0264B98422FD0DF
S11308C40CD8254B984223D0244B984224D0244B53
S11308D49842D6D11D4BD3F884000EE0214B9842A4
S11308E422D003F5740303F510539842C9D1174B6E
S11308F4D3F8980001E0154B986D08BD134B186F9D
S1130904FBE7124B586FF8E7104BD3F88000F4E779
S11309140E4BD3F88800F0E70C4BD3F88C00ECE7CB
S11309240A4BD3F89000E8E7084BD3F89400E4E7C3
S113093480BA8C01405DC60080841E0040420F00D2
S1130944B027000000093D00C0CF6A000080E00F1A
S11309540024F400007E560380D54302006CDC02BC
S11309640048E8010090D00338B50F4B0546D3F88E
S113097480300C4603F00303022B09D0032B0FD061
S11309840A4841F2FF1101F0D0FC0023184602E0AA
S1130994FFF756FE0B2305B1286004B1236038BD6C
S11309A4FFF77EFE0523F6E700800050B027000021
S11309B438B5164B0546D3F820010C4600F0070061
S11309C4042818D8DFE800F01F030B0F1300FFF707
S11309D411FE042305B1286004B1236038BDFFF778
S11309E445FE0323F6E7FFF75BFE0523F2E7FFF773
S11309F453FE0223EEE7064841F27C2101F095FC04
S1130A0400231846E6E70123E4E700BF0080005012
S1130A14B027000073B50024144B0194D3F880313B
S1130A24064603F00303022B0D460FD0032B12D00A
S1130A34012B15D1214601A8FFF7BAFF0D240EB1ED
S1130A44019A326005B12C6002B070BDFFF728FE34
S1130A5405240190F3E7FFF71FFE02240190EEE75B
S1130A6441F2D131024801F060FCE8E70080005013
S1130A74B027000038B5104B0546D3F840310C4676
S1130A8403F00303022B0BD0032B0DD0012B0FD146
S1130A9401F045FC082305B1286004B1236038BD86
S1130AA4FFF742FE0723F6E701F03CFC0923F2E7D3
S1130AB401230020EFE700BF0080005038B5104B3D
S1130AC40546D3F860310C4603F00303022B0BD024
S1130AD4032B0DD0012B0FD101F021FC082305B108
S1130AE4286004B1236038BDFFF71EFE0723F6E730
S1130AF401F018FC0923F2E701230020EFE700BF0B
S1130B040080005038B5164B0546D3F800020C4655
S1130B1400F00700042819D8DFE800F020030B0FC5
S1130B24130001F0FCFB082305B1286004B1236021
S1130B3438BDFFF7F9FD0723F6E701F0F3FB0923BA
S1130B44F2E7FFF77DFD0C23800AEDE7054841F247
S1130B548F4101F0EAFB00231846E5E70123E3E7AC
S1130B6400800050B027000038B5164B0546D3F872
S1130B7408020C4600F00700042819D8DFE800F046
S1130B8420030B0F130001F0CAFB082305B12860EE
S1130B9404B1236038BDFFF7C7FD0723F6E701F06E
S1130BA4C1FB0923F2E7FFF74BFD0C23800AEDE7B1
S1130BB4054841F2C74101F0B8FB00231846E5E7B4
S1130BC40123E3E700800050B027000038B5124B3E
S1130BD40546D3F840320C4603F00303022B0BD032
S1130BE4032B0DD0012B0FD101F099FB082305B180
S1130BF4286004B1236038BDFFF796FD0723F6E7A8
S1130C0401F090FB0923F2E7044841F21A4101F090
S1130C148CFB00231846EAE700800050B02700004C
S1130C2438B5104B0546D3F800310C4603F00303E2
S1130C34022B0BD0032B0DD0012B0FD1FFF716FD84
S1130C44032305B1286004B1236038BDFFF76CFDAC
S1130C540723F6E701F061FB0623F2E701230020F2
S1130C64EFE700BF0080005010B503281BD005D85F
S1130C74012805D0022810D000240CE00F28FBD151
S1130C840B4B1C6FC4F30134022C04D140F27D21BC
S1130C94084801F04AFB601C10BD054BD3F8904092
S1130CA4C4F30464F7E7024B1C6FC4F38024F2E733
S1130CB400800050B02700001FB5002301932528AD
S1130CC474D8DFE800F013191C262B353A50555A12
S1130CD45F64696E73193F73735519262B2635198E
S1130CE450266E3A3A3A3A2626265A5FFFF78EFC85
S1130CF40190019804B010BDFFF7A2FCF8E7FFF7D8
S1130D0485FC04460220FFF7AFFFB4FBF0F4019422
S1130D14EFE7FFF795FC04460320F4E7FFF790FCA4
S1130D2404460320FFF7A0FFB4FBF0F46408EEE7E5
S1130D34002101A8FFF76EFEDBE7002101A8FFF7FD
S1130D4437FED6E702934FF0E0231B695B0705D512
S1130D54FFF776FC0290029B0193CAE703A902A859
S1130D64FFF788FEF7E7002101A8FFF783FEC0E739
S1130D74002101A8FFF7A2FEBBE7002101A8FFF7A9
S1130D84C1FEB6E7002101A8FFF7EEFEB1E700219A
S1130D9401A8FFF745FFACE7002101A8FFF7E4FD34
S1130DA4A7E7002101A8FFF711FFA2E74FF46C7134
S1130DB4014801F0BAFA9CE7B027000008B5012005
S1130DC4FFF77AFFBDE808400349884294BF012134
S1130DD40221032000F002B880F0FA0210B50328BF
S1130DE43DD00AD801280AD0022826D040F2163170
S1130DF4BDE81040224801F098BA0F28F6D14C1EE1
S1130E04012C06D9042904D040F2C7211C4801F05E
S1130E148CFA01F0B3FA01F0B9FA1A4A136F23F405
S1130E24405343EA04331367FFF70AFC0021FFF736
S1130E34E7FCBDE81040FFF7C1BF4C1E1F2C04D9CA
S1130E4440F20A310E4801F070FA0E4AD2F890309A
S1130E5423F0F85343EA0463C2F8903010BD4C1EE7
S1130E64012C04D94FF44471054801F05EFA054A93
S1130E74136F23F4806343EA84231367EEE700BF0C
S1130E84B0270000008000501FB5002301932528DB
S1130E946FD8DFE800F0136E6E6E6E2D354B50552F
S1130EA45A5F64696E6E3A6E6E506E6E6E6E2D6E1F
S1130EB44B6E69353535356E6E6E555A2E4B1B6F38
S1130EC403F00703013B032B0CD8DFE803F009020A
S1130ED40507042301930FE00323FBE70623F9E743
S1130EE40223F7E740F2CA41244801F01EFA03E062
S1130EF4002001A9FFF78EFD019805B05DF804FBFD
S1130F04002001A9FFF754FDF6E702934FF0E02314
S1130F141B695B0705D5FFF793FB0B230393039B23
S1130F24D8E703A902A8FFF7A5FDF8E7002001A963
S1130F34FFF7A0FDE0E7002001A9FFF7BFFDDBE711
S1130F44002001A9FFF7DEFDD6E7002001A9FFF781
S1130F540BFED1E7002001A9FFF762FECCE70020D5
S1130F6401A9FFF701FDC7E7002001A9FFF72EFE41
S1130F74C2E740F27D51B7E700800050B02700007B
S1130F84024A536A23F001035362704700C00750B6
S1130F9470B50546FFF764FC431E0333044604D9C5
S1130FA440F6CF11284801F0C0F9284B5A68012AA9
S1130FB404D127494A609A699207FCD10020FFF7BB
S1130FC463FF042803D101F0D9F901F0DFF9214AC0
S1130FD424F04073954228D01F4A954228D01F4CD0
S1130FE4E26812F0060FFBD1A668A360A26853401E
S1130FF413F4F81F1FD12846FFF702FB0020FFF764
S113100443FF04281ED1FFF71BFB8542044604D288
S113101440F628210C4801F088F920460021FFF706
S1131024EFFBBDE87040FFF7C9BE43F00073D6E799
S113103443F08073D3E740F61721034801F075F9B0
S1131044A660DBE770BD00BFB027000000C00150FC
S113105400E0015040420F0080841E000000015053
S1131064F8B5036804460F2B04D940F67731694870
S113107401F05BF963680F2B04D940F67A316548B3
S113108401F053F9A3680F2B04D940F67D3161486C
S113109401F04BF9237B0F2B04D94FF438615D48DD
S11310A401F043F9637B0F2B04D940F6833159488B
S11310B401F03BF9A37B3F2B04D940F68631554814
S11310C401F033F9E37B3F2B04D940F689315148CD
S11310D401F02BF92369032B04D940F68C314D48D4
S11310E401F023F96369032B04D940F68F3149488D
S11310F401F01BF9E369012B04D940F69231454808
S113110401F013F90020FFF7BFFE032800F08180EB
S113111445F60E030221404AC2F880303F4B9962DF
S1131124012103F580539962936DD903FCD4D4E966
S113113400131B0543EA0163E17B94F820500B433D
S1131144217BE77E43EA0143617B6D0143EA01337A
S1131154A17B43EA811313619169D4E904031B0657
S113116443EA806301F000410B43A17E94F8230019
S11311740B43217E43EA0143617E43EA01239361E5
S1131184136AE66923F00D0394F8221043EA8703F3
S113119466BB1362966A94F8213045EA031326F079
S11311A433052B4343F0010393621D4D1A4A936D97
S11311B435EA0303FBD10225184B9D62936D5B0052
S11311C4FCD41369A56823F4700343EA055313613B
S11311D44FF00042114B9A6119B9022203F580536E
S11311E49A6278B901220F4B9A620BE0334343F0BD
S11311F408031362936A23F0330303432B4343EA40
S11312044103936294F824301BB1034B064AC3F898
S11312148020F8BDB027000000C0005000D000506A
S11312240300014000E00050F1A7FFFF014B93F9D4
S1131234000070473612002010B543680446072B9B
S113124404D940F6D351274801F06FF8A368032B5F
S113125404D940F6D551234801F067F82378032BC9
S113126404D940F6D7511F4801F05FF894F90130CE
S1131274002B04DA40F6D9511A4801F056F84FF419
S1131284D1510220184A6378516218494F2B48609F
S11312944FF0010028BF4F2301F5805148601169C4
S11312A4C903FCD4217843EA01235361D4E901132B
S11312B41B0143EA0123617B0B43217B43EA410382
S11312C49360E37BA17B1B0143EA4113617C0B43E1
S11312D4217C43EA41035360A37C13B16FF4D153DB
S11312E4536210BDB02700000000025000100250E9
S11312F4014B1880704700BF9E120020014B1880D8
S1131304704700BF9C12002010B5454B0446984218
S113131465D03BD8A3F5B703A3F5586398425AD0D4
S11313242DD8404B98424AD013D8002863D041F2B8
S1131334C9113D4800F0F9FF40F673713A4800F0D2
S1131344F4FF384B9C4269D0384B9C4258D100235B
S113135432E0364B984226D0354B9842E7D1354B90
S1131364D3F8A040621E033224F0407404D940F63A
S113137473712D4800F0D9FF2F4A946010BD2F4B90
S11313849842D4D12B4BD3F8BC40EBE72C4B984276
S113139429D02C4B98422AD02B4B9842C7D1254BA9
S11313A4D3F8C840DEE7234BD3F8A040621E0332CF
S11313B424F040742CD8234643F08074DCE71D4B9E
S11313C4D3F8A040621E033224F040741AD8234692
S11313D443F00074D0E7174BD3F8B840C2E7154B79
S11313E4D3F8C040BEE7134BD3F8CC40BAE7114B53
S11313F4D3F8D040B6E740F673710B4800F095FF7C
S11314040024B9E740F67371074800F08EFFDEE765
S113141440F67371044800F088FFCCE70023D7E753
S1131424C0EA210140420F00B027000080841E005E
S113143400093D000080E00F0040015A0024F4003C
S11314440048E801005A620280BA8C01034A017917
S1131454D36E23F030030B43D3667047004000502F
S113146438B5032804460D4604D80B4B1B5CCB400B
S1131474DB0704D440F22D41084800F056FF302223
S11314840123544341F2100204F1A044AB4004F597
S11314947034A35038BD00BFAB28000003280000FB
S11314A438B5032804460D4604D80B4B1B5CCB40CB
S11314B4DB0704D440F2FE31084800F036FF302242
S11314C40123544342F2100204F1A044AB4004F556
S11314D47034A35038BD00BFAB28000003280000BB
S11314E4F8B5032804460D4616461F4604D81C4B7B
S11314F41B5CCB40DB0704D44FF4B071194800F0F3
S113150414FF26B129462046CFB1FFF7A9FF04EB07
S11315144403072D4FF00F014FEA031312D8A80018
S113152406FA00F281401048184400F047FFAEB9AF
S11315342946204677B1BDE8F840FFF791BFFFF78D
S1131544AFFFE4E7A5F10800800006FA00F2814049
S11315540648E9E7BDE8F840FFF7A2BFF8BD00BFBD
S1131564AB2800005728000004C003500CC00350EB
S113157410B5044618B991211B4800F0D6FE23780F
S11315841B0613F0604F03D09221174800F0CDFEE0
S1131594E3780F2B03D9A321134800F0C6FE0122DC
S11315A4124B15205A60227812069A606178A27848
S11315B442EA01429A61FF229A6200229A631A64FF
S11315C44FF000425A654FF0FF3203F500531A6599
S11315D400F07EFA1520E17800F088FABDE81040A6
S11315E4152000F05BBA00BFAF28000000000450CF
S11315F4054B5B69C3F38512827003F03F021B0B36
S113160442700370704700BF00C007500D4B9842EE
S113161408D1A3F50033C3F88411C36D43F08003E8
S1131624C3657047084B984204D1A3F51033C3F83B
S11316349411F2E7054B984204BFA3F52033C3F891
S1131644A411EAE70080055000C0055000000650CC
S1131654F8B507460C461D4616464AB94FF4A1711F
S1131664314800F062FE24B1402D08D1062327E05E
S113167419B90320FFF720FB0446402D42D0402D26
S113168409D87DB1202D17D040F28911BDE8F84066
S1131694254800F04ABE602DF6D1B6EB940F3CD831
S11316A404230DE0B6EB141F04D94FF4BA711E4899
S11316B400F03BFE102303E0B6EBD40F1CD8082340
S11316C45E43730803EB4413B3FBF6F3174E203B5A
S11316D4B6EBC30F4FEAC30404D24FF4D0711248DB
S11316E400F023FEBB68344023F06003BB60BB6896
S11316F41D43BD60FC61F8BD40F279110A4800F055
S113170414FEDCE70623B4FBF3F3B342AED24FF486
S1131714BF71054800F009FEA8E740F283110248AE
S113172400F003FEBCE700BF56290000F8FF7F0069
S113173410B51B4B044698420CD003F580439842E1
S113174408D003F58043984204D040F2424115483E
S113175400F0EBFD012204F580535A6040F6AA63BD
S113176441F20502636100230F49A360E365E2606B
S113177404F500522361E361E36491640849A365B9
S11317848C4203D123650023636506E007498C4238
S1131794F8D001F580418C42F4D00123536010BD8C
S11317A40080055056290000FFFF010000C00550C9
S11317B470B5444B044698420D460CD003F580435F
S11317C4984208D003F58043984204D040F2FD21A6
S11317D43D4800F0AAFD2046FFF7AAFF012304F5C3
S11317E480567360AB7C1BB1A36843F08043A36051
S11317F4EB7C1BB12046297DFFF708FF2A8A6B7B0B
S113180420461343EA891343E3602B7BD5E9011291
S1131814FFF71EFF6B7D1BB1A36843F48033A36001
S1131824AB7D1BB1A36843F40043A360EB7D2A7E24
S11318341B07120502F4E00203F0E0431343A3651B
S1131844697E204A8B1E012B204B1DD8944217D04D
S113185402F58042944215D002F5804294420CBFB2
S113186402224FF0FF3203EB4213022041F2AC5246
S11318740329985020D10423F3652B78636170BD48
S11318840022F0E70122EEE7944211D0104A944278
S113189410D002F5804294420CBF02224FF0FF3272
S11318A403EB4213022042F2AC5201299850E1E7BF
S11318B40022F5E70122F3E7042204F50053DA6574
S11318C4DBE700BF008005505629000000C0035028
S11318D400C0055030B58BB06D46604C0FCC0FC5BD
S11318E454F8043B68462B604FF07E6393F89C30B5
S11318F46D46FF2B08BF25238DF80130FFF79CFCB0
S11319043220FFF7F5FC0FCC0FC50FCC0FC594E8BC
S1131914030085E80300524BD3F84C21110340F132
S11319248380A3F5FE431C884FF6FF739C4208BFD3
S113193481248DF81940FFF779FC044484F30804E6
S113194448488DF81840FEF797FE6846FFF788FB71
S11319543220FFF7D3FC444C4448FFF719FB4448B6
S1131964FFF7D2FC00F016FD236F002023F00703D9
S113197443F002032367236F23F4505343F4806337
S1131984236700F00EFD3B4BD3F8FC20D2014FD467
S1131994D4F8803023F0030343F00203C4F8803006
S11319A4314BD3F8202122F0070242F00102C3F89C
S11319B42021D3F8802122F0030242F00102C3F86B
S11319C48021D3F8402122F0030242F00202C3F83A
S11319D44021D3F8602122F0030242F00202C3F84A
S11319E46021D3F8402222F0030242F00202C3F839
S11319F44022D3F8002222F0070242F00202C3F884
S1131A040022D3F8082222F0070242F00202C3F8AB
S1131A140822FFF7B5FA4FF0E0220020136963F0BF
S1131A24040313610BB030BDD3F85041E4B280E732
S1131A34D3F8FC2022F08072C3F8FC20D4F8802070
S1131A4422F0030242F00202C4F88020D3F8FC20FE
S1131A5442F08072C3F8FC20A2E700BFAC29000066
S1131A640080E00F00F049020080005000B4C40478
S1131A74C0EA210100ED00E013B50024064A6846DB
S1131A84536F43F00103536700948DF80440FFF748
S1131A94DDFC204602B010BD0040005010B53D28C6
S1131AA4044608D801236109074A04F01F04A3402B
S1131AB442F8213010BD4FF48A71044800F035FC1B
S1131AC4002CF7DBEEE700BF00E100E0EC290000A6
S1131AD4002808DB01224309034900F01F00824067
S1131AE4603341F82320704700E100E038B500F189
S1131AF410034D2B04460D4604D94FF4E1710D48EF
S1131B0400F013FC1E2D04D940F2C311094800F05F
S1131B140CFC002CACBF04F16044074B4FEA0515E0
S1131B24EDB2ABBF04F5614404F00F0484F8005330
S1131B341D5538BDEC29000014ED00E00346054AA8
S1131B440549106803448B428CBF4FF0FF30136087
S1131B54704700BF481200200080012008B5064BDE
S1131B64044613B10021AFF30080044B1B6803B196
S1131B749847204600F0EAFB00000000941100207E
S1131B840CB4184B30B50C1E9DB01D6808DA8B23B9
S1131B944FF0FF302B601DB0BDE8304002B07047F9
S1131BA44FF402730290069002A9ADF8143014BFE6
S1131BB404F1FF332346209A2846049307934FF6EF
S1131BC4FF73ADF8163021AB019300F021F9431CE7
S1131BD4BCBF8B232B60002CDDD0029B00221A7027
S1131BE4D9E700BF4C12002070B50D4D00260D4CF2
S1131BF4641BA410A64209D10B4D00260B4C00F023
S1131C04ADFD641BA410A64205D170BD55F8043B78
S1131C1401369847EEE755F8043B01369847F2E756
S1131C24A0120020A0120020A0120020A412002060
S1131C3438B50546002941D051F8043C0C1F002B4B
S1131C44B8BFE41800F0D8F81D4A136833B96360C8
S1131C5414602846BDE8384000F0D4B8A34208D93B
S1131C64206821188B4201BF19685B680918216038
S1131C74EDE71A465B680BB1A342FAD91168501810
S1131C84A0420BD120680144501811608342E0D172
S1131C9418685B68084453601060DAE702D90C23BF
S1131CA42B60D6E7206821188B4202BF19685B6851
S1131CB40918636008BF21605460CAE738BD00BFD7
S1131CC4A011002070B50F4E0C460546316811B9B9
S1131CD400F0C6FA30602146284600F0C1FA431CDD
S1131CE403D14FF0FF34204670BDC41C24F0030418
S1131CF4A042F8D0211A284600F0B2FA0130F2D1F9
S1131D04EFE700BF9C1100202DE9F041CD1C0646ED
S1131D1425F0030508350C2D38BF0C25002D01DBF7
S1131D24A94204D90C2333600020BDE8F081314F6B
S1131D3400F062F83B681C4644BB29463046FFF772
S1131D44C1FF431C044650D13C682146002941D1BB
S1131D54002C44D02368304604EB030800F080FAD6
S1131D6480453CD1216830466D1A2946FFF7AAFF05
S1131D74013034D023682B4423603B68002B36D0D5
S1131D845A68A24229D100225A600EE02268521BEA
S1131D941DD40B2A16D96119A342256018BF5960B2
S1131DA4636808BF396062514B60304600F02AF81A
S1131DB404F10B00231D20F00700C21AB5D01B1A2E
S1131DC4A350B2E7A3426268DED13A60EDE723464A
S1131DD46468B1E70C464968B8E71346CEE70C23B8
S1131DE43046336000F00EF89EE70560DDE75B6083
S1131DF4FFDE00BFA0110020014800F06BBB00BF50
S1131E0437120020014800F066BB00BF37120020DF
S1131E142DE9F04F98468B899DB007461B060D4665
S1131E24144610D50B6973B94021FFF76DFF286080
S1131E34286130B90C233B604FF0FF301DB0BDE87E
S1131E44F08F40236B610023CDF80C804FF001091F
S1131E54DFF8A081099320238DF8293030238DF8ED
S1131E642A3023469A4613F8012B0AB1252AF9D1BC
S1131E74BAEB040B0BD05B4622462946384600F0E5
S1131E842BFB013000F0A780099A5A4409929AF86E
S1131E940030002B00F09F8000234FF0FF320AF142
S1131EA4010A049307938DF853301A93CDE905235B
S1131EB4544605224F4814F8011B00F0F4FB049A1D
S1131EC4D8B9D00644BF20238DF85330110744BF3A
S1131ED42B238DF853309AF800302A2B15D0079A07
S1131EE4544600204FF00A0C214611F8013B303BC4
S1131EF4092B4BD9B0B1079214E0A0EB0803A24616
S1131F0409FA03F313430493D2E7039B191D1B68D3
S1131F14002B0391BBBF5B4242F002020793079379
S1131F24B8BF049223782E2B0AD163782A2B32D19A
S1131F34039B02341A1D1B6843EAE373039205935B
S1131F44DFF8C0A003222178504600F0ACFB38B17E
S1131F54A0EB0A004022049B0134824013430493FF
S1131F6414F8011B062224488DF8281000F09BFB6A
S1131F74002836D0214B1BBB039B073323F00703F4
S1131F8408330393099B334409936AE70CFB023235
S1131F940C460120A8E7002301344FF00A0C19462B
S1131FA40593204610F8012B303A092A03D9002B53
S1131FB4C6D00591C4E70CFB012104460123F0E7D4
S1131FC403AB2A4604A9384600930D4BAFF30080B3
S1131FD4421C0646D6D1AB895B063FF52DAF099862
S1131FE42CE703AB2A4604A938460093044B00F0BB
S1131FF40BF8EDE7692A0000732A000000000000D2
S1132004DD2400006F2A00002DE9FF470F7E91466E
S113201480460C46782F9A460C9E01F1430207D859
S1132024622F0AD8002F00F0DD80582F00F0C380FF
S113203404F1420684F842703AE0A7F16303152BD5
S1132044F6D801A151F823F0A5200000B92000001E
S11320543520000035200000352000003520000024
S1132064B920000035200000352000003520000090
S113207435200000CF210000472100008721000003
S11320843520000035200000F12100003520000037
S11320944721000035200000352000008F21000076
S11320A433681A1D1B68326004F1420684F8423016
S11320B40123A8E031682368081D30601E0601D599
S11320C40D6803E05D06FBD5B1F90050002D61688D
S11320D478DA2D200029A16084F843002DDA6D42BA
S11320E45D480A231646B5FBF3F103FB1157C75D9C
S11320F406F8017D2F460D46BB42F4D9082B0BD1BB
S11321042368DF0708D5236961689942DEBF302359
S113211406F8013C06F1FF36921B22614B4603AAE2
S113212421464046CDF800A000F031FA01306FD1C9
S11321344FF0FF3004B0BDE8F08723F004032360BC
S1132144CDE721683368080653F8045B02D44906D2
S113215448BFADB26F2F33603F4814BF0A2308232E
S1132164002184F843106668002EA660BADB216857
S113217421F004012160002DB4D1002EB2D1164601
S1132184BCE7236843F0200323607827334823689B
S113219484F845701F06316851F8045B02D45F0665
S11321A448BFADB23160D90744BF43F02003236074
S11321B41DB11023D4E72848E9E7236823F020035A
S11321C42360F6E724480A23CDE733682568181DFD
S11321D4616930602E061B6801D5196002E0680647
S11321E4FBD5198000231646236197E73368002141
S11321F41A1D32601E686268304600F054FA08B151
S1132204801B606063682361002384F8433085E79E
S11322142369324649464046D047013088D0236872
S11322249B0714D4E068039B9842B8BF184681E71F
S11322340123324649464046D04701303FF478AF43
S11322440135E36803995B1AAB42F1DCEAE7002544
S113225404F11906F5E700BF7A2A00008B2A00006E
S113226438B50023054D044608462B60FFF766FC89
S1132274431C02D12B6803B1236038BD981100209C
S1132284704710B50123042205210020FFF728F923
S11322940023012218460621FFF722F9BDE8104065
S11322A40422012311460320FFF71AB900F016B8DB
S11322B408B5FEF73FFABDE8084000F018B800F08E
S11322C40BB87047704708B5042201231146032054
S11322D4FFF706F9002008BDFFF7F5BF08B504228F
S11322E4002311460320FFF7FBF8002008BD08B5BE
S11322F4082000F02CF8BDE80840082000F032B8AB
S1132304FEE74AB110B5002350F8234041F82340B6
S113231401339342F8D110BD7047002070474FF445
S1132324004070474FF47A707047FEE7EFF3108073
S113233472B6704700B962B67047EFF31180302368
S113234483F31188704780F311887047FEE74FF0D8
S113235460420123D2F8001E83400B430020C2F8DC
S1132364003E70474FF060410122D1F8003E8240A4
S113237423EA02030020C1F8003E704708B5FEF7C3
S113238471F9BDE808400021FEF73ABA022103209E
S1132394FEF724BD08B5FFF7F1FFBDE80840FFF7D9
S11323A4F5BF10B50446FEF74BF90021FEF728FAF1
S11323B41CB1BDE81040FEF701BD10BD70B5054663
S11323C414460E46FFF7B2FF2B685C4034405C4071
S11323D42C60BDE87040FFF7ADBF704783691B06EE
S11323E4FCD5406AC0B2704783695B06FCD5C163FF
S11323F4704700F008B809B100F007B8222070470C
S1132404012100F043B80020704770B506460D461C
S1132414FFF793FF04461C2E35D8DFE806F00F18A7
S1132424341C1E203422243434342628342A2C2EFA
S1132434303434343434343434343200FEF7E6F88B
S1132444002628602046FFF77EFF304670BD012039
S1132454FEF732FCF4E70320FAE70420F8E70C2043
S1132464F6E70220F4E70620F2E70720F0E7082065
S1132474EEE70520ECE70920EAE70A20E8E70D2067
S1132484E6E71020E4E700202126DAE7002070477D
S1132494FFF720BA10B56FF0040420460521013477
S11324A4FFF724FB3D2CF8D110BD08B5FDF7D2FF8E
S11324B4FFF7FEFEFFF703FFFFF703FFBDE8084045
S11324C4FFF700BF02440346934200D1704703F868
S11324D4011BF9E7704770472DE9F0471F468E68E2
S11324E482460C46BE4290460B682DD8B1F90C20A6
S11324F412F4906F26D06569096905EB4505A3EBD1
S113250401097B1C05EBD5754B446D109D4238BF06
S11325141D46530527D52946FFF7F6FB064660B347
S11325244A46216900F0CDF8A38923F4906343F06B
S11325348003A38126614E446561A5EB09052660E9
S11325443E46A560BE4200D93E4632464146206816
S113255400F08FF8A36800209B1BA3602368334416
S11325642360BDE8F0872A4600F0B8F80646002840
S1132574E0D121695046FFF75BFB0C234FF0FF3099
S1132584CAF80030A38943F04003A381E9E72DE9A5
S1132594F047164698468A6807460B690C46DDF8E8
S11325A420909342B8BF1346336091F843200AB194
S11325B4013333602368990642BF336802333360BE
S11325C4256815F0060506D104F1190AE368326892
S11325D49B1AAB422BDC94F843302268003B18BFAF
S11325E40123920630D404F1430241463846C847D5
S11325F4013023D023681A3454F80A2C03F0060358
S1132604042B0ABF54F80E5C002533684FF000060F
S113261408BFED1A54F8123C08BF25EAE575934245
S1132624C4BF9B1AED18B5421AD1002008E0012357
S1132634524641463846C847013003D14FF0FF3073
S1132644BDE8F0870135C1E7E1185A1C3020023394
S1132654224481F8430094F8451082F84310C2E7F9
S11326640123224641463846C8470130E6D00136A4
S1132674D9E7884210B501EB020402D98442234607
S113268407D8431EA14208D011F8012B03F8012FE7
S1132694F8E7024401468A4200D110BD13F8014D03
S11326A402F8014DF7E7C9B20346024410B5934258
S11326B4184601D1002003E0047801338C42F6D19A
S11326C410BD0A44431E914200D1704710B511F85D
S11326D4014B914203F8014FF9D110BD2DE9F041AA
S11326E4804615460C4621B91146BDE8F041FFF772
S11326F40BBB2AB9FFF79CFA00242046BDE8F081FD
S113270400F01AF88542064602D8B5EB500FF4D807
S113271429464046FFF7F8FA07460028ECD0B542AC
S11327242A46214628BF3246FFF7CBFF21464046BE
S11327343C46FFF77DFAE0E751F8043C181F002BF0
S1132744BCBF0B58C0187047000000000000000014
S1132754000000000000000000000000F8B500BF05
S1132764F8BC08BC9E467047F8B500BFF8BC08BC6A
S11327749E46704725633A20256C750D0A0030780F
S1132784253032583A20256C750D0A0005000000E6
S11327940000000000C20100000500000010000059
S11327A400000000000000001E000003443A2F73E0
S11327B4696D706C69636974795F73646B5F737555
S11327C46974655F76323032345F365F322D30306F
S11327D4312F73696D706C69636974795F73646BA9
S11327E45F352F706C6174666F726D2F656D6C69E3
S11327F4622F7372632F656D5F636D752E6300645E
S11328043A5C73696D706C69636974795F73646B42
S11328145F73756974655F76323032345F365F3264
S11328242D3030315C73696D706C69636974795FE0
S113283473646B5F355C706C6174666F726D5C6538
S11328446D6C69625C696E635C656D5F6770696F0A
S11328542E6800443A2F73696D706C6963697479E6
S11328645F73646B5F73756974655F763230323499
S11328745F365F322D3030312F73696D706C69634C
S11328846974795F73646B5F352F706C6174666F00
S1132894726D2F656D6C69622F7372632F656D5F42
S11328A46770696F2E63007F033F1F443A2F736977
S11328B46D706C69636974795F73646B5F73756954
S11328C474655F76323032345F365F322D303031A6
S11328D42F73696D706C69636974795F73646B5F7A
S11328E4352F706C6174666F726D2F656D6C6962DF
S11328F42F7372632F656D5F6C646D612E63006466
S11329043A5C73696D706C69636974795F73646B41
S11329145F73756974655F76323032345F365F3263
S11329242D3030315C73696D706C69636974795FDF
S113293473646B5F355C706C6174666F726D5C6537
S11329446D6C69625C696E635C656D5F6275732E40
S11329546800443A2F73696D706C69636974795FB4
S113296473646B5F73756974655F76323032345F98
S1132974365F322D3030312F73696D706C69636941
S113298474795F73646B5F352F706C6174666F72F6
S11329946D2F656D6C69622F7372632F656D5F753E
S11329A4736172742E6300000126000004000000A9
S11329B40000000000010000000000000B00000003
S11329C40B000000020000000000202000000000B2
S11329D4030000008C8C3C00000000000000000098
S11329E400000000FFFFFFFF443A2F73696D706C11
S11329F469636974795F73646B5F73756974655F24
S1132A0476323032345F365F322D3030312F736991
S1132A146D706C69636974795F73646B5F352F706F
S1132A246C6174666F726D2F736572766963652F5A
S1132A34696E746572727570745F6D616E616765D9
S1132A44722F7372632F736C5F696E74657272751F
S1132A5470745F6D616E616765725F636F727465D4
S1132A64786D2E6300232D302B2000686C4C006598
S1132A7466674546470030313233343536373839A2
S1132A8441424344454600303132333435363738D5
S10B2A943961626364656600A8
S10B2A9C28D7FF7F01000000B0
S10F2AA4B02A0000381200201C000000C2
S1132AB0C0EA2101C0EA21010080000000F04902BF
S1132AC0A812002050120020000000005C1000201A
S1132AD0C41000202C1100200000000000000000A1
S1132AE000000000000000000000000000000000E2
S1132AF000000000000000000000000000000000D2
S1132B0000000000000000000000000000000000C1
S1132B1000000000FFFFFFFFA10100007901000099
S903053DBA
